:020000040000FA
:02000000752C5D
:06000A00C001C101C201AA
:10001000C301C401C501C601C701C801C901CA01A4
:10002000CB01D001D101D201D301D401D501D60138
:10003000D70182070000462B8E2BCD2BE32B3D2CC6
:10004000552C0339BE003E078207480808004908BE
:1000500008004A0808004B080800D9070318D80A06
:100060000034D902031CD80300343E08DA00DB0157
:100070003F08031900340310DA0CDB0C0310BF0D2A
:10008000031C38285A08D8075B08D9070318D80A70
:100090003828BE0100000000BE0B4A280034323070
:1000A000BF004920BF0B57280034C830BF0049208B
:1000B000BF0B57280034BF003F0ECF203F08CF2092
:1000C0003F0ECF203F08CF203F0ECF203F08CF204C
:1000D0003F0ECF203F08CF203F0ECF203F08CF203C
:1000E0003F0ECF203F08CF203F0ECF203F08CF202C
:1000F0003F0ECF203F08CF200034BF00F039603ED4
:10010000031C89286030CF203F08F039703ECF2093
:100110008E283030CF203F08F039CF203F0EF03905
:10012000603E031C99286030CF203F0EF039703EAE
:10013000CF283030CF203F0EF039CF28DA01DA0A4D
:10014000DB00F63E03189F285A082F3ECB205B08A1
:10015000303ECB282B30D81FB328FF30D806D90625
:1001600001302D202D30CB202F30DA00DA0A643018
:100170003120D81FB6285A08CB2064302D202F30CC
:10018000DA00DA0A0A303120D81FC1285A08CB20F9
:1001900059083A3ECB28BF003F0ECF203F088600CB
:1001A0008316B030860083128515000085110A3051
:1001B000BE0000000000BE0BD9280034C43085000A
:1001C0008316051085140516BF308600831249205A
:1001D000061C2234861C2834061D1734861D443420
:1001E000061E1434861E11348316051485108312DE
:1001F0004920061C4134861C4234061D1834861DD5
:100200001034061E1534861E12348316851405120A
:1002100083124920061C2134861C2434061D1934FF
:10022000861D4834061E1634861E133483160510A8
:10023000851083128034DE2080390319BF01BF0A84
:100240003F1E1B29DE20BE00BE1B2229413A031D92
:100250003329CF014F20DE20413A031D4134CF0A1C
:10026000CF1E2A2980343E0808001E21BE000F3907
:100270003E1A0800BE1B4A293E08423A03192034A0
:10028000603A03192034033A03194034053A03193C
:1002900010343529A02200380319803405280511AF
:1002A0000C30CB200130CB20552005152830CB2039
:1002B0002D30CB204C089E202930CB2048089E2092
:1002C0002030CB2049089E202030CB204A089E2099
:1002D0002030CB204B089E202030CB200511C03091
:1002E000CB2005154008D8004108D900AA204208B3
:1002F000D8004308D900AA204408D8004508D900EE
:10030000AA204608D8004708D900AA201E21283A6A
:1003100003199229A83A031D8629A022003803193F
:100320004F29052805110F30CB200130CB20552057
:1003300005152830CB202D30CB204C08FF3E031C68
:100340004F299E202930CB204930CB206E30CB2046
:100350007030CB207530CB207430CB200511C030ED
:10036000CB2005155008303ECB205108303ECB2025
:100370002030CB205208303ECB205308303ECB20DB
:100380002030CB205408303ECB205508303ECB20C7
:100390002030CB205608303ECB205708303ECB20B3
:1003A0002030CB204F30CB206B30CB200511C0301C
:1003B000CB2005153521BE00BE1B92293E1B4F29BF
:1003C000BE1A5E2A3E1AE729D000303ECB20051126
:1003D000C130CB2005153521BE00BE1B92293E1B26
:1003E0004F29BE1AD6293E1AF829D100303ECB201B
:1003F0000511C330CB2005153521BE00BE1B922947
:100400003E1B4F29BE1AE7293E1A092AD200303E68
:10041000CB200511C430CB2005153521BE00BE1BF5
:1004200092293E1B4F29BE1AF8293E1A1A2AD300D8
:10043000303ECB200511C630CB2005153521BE003E
:10044000BE1B92293E1B4F29BE1A092A3E1A2B2A8F
:10045000D400303ECB200511C730CB200515352107
:10046000BE00BE1B92293E1B4F29BE1A1A2A3E1AF5
:100470003C2AD500303ECB200511C930CB200515D4
:100480003521BE00BE1B92293E1B4F29BE1A2B2AC6
:100490003E1A4D2AD600303ECB200511CA30CB2063
:1004A00005153521BE00BE1B92293E1B4F29BE1AE1
:1004B0003C2A3E1A5E2AD700303ECB200511CE30B2
:1004C000CB2005151E21BE00BE1B762A413A03191A
:1004D0007B2A033A03194D2A603A03194D2A033A3D
:1004E00003194F29053A0319D6295E2AA02200389C
:1004F0000319922905285108C8000310500DC80798
:10050000C807C807C807C8075308C9000310520D19
:10051000C907C907C907C907C9075508CA00031091
:10052000540DCA07CA07CA07CA07CA075708CB002B
:100530000310560DCB07CB07CB07CB07CB070034F7
:1005400005110F30CB200130CB20552005154D3043
:10055000CB206530CB206E30CB207530CB202030C7
:10056000CB206330CB206F30CB206430CB20653084
:10057000CB203A30CB201E21DC00423A0319003454
:100580005C1EBB2A2A30CB201E21DD00423A031913
:1005900000345D1EC42A2A30CB201E21DE00423AE0
:1005A000031900345E1ECD2A2A30CB201E21DF0025
:1005B000423A031900345F1ED62A2A30CB205C0849
:1005C000113A031DF02A5D08113A031DF02A5E0856
:1005D000143A031DF02A5F08173A031DF02A01346C
:1005E0005C08103A031D012B5D08163A031D012B10
:1005F0005E08143A031D012B5F08173A031D012BF7
:1006000002345C08133A031D122B5D08193A031DCE
:10061000122B5E08123A031D122B5F08123A031DBB
:10062000122B03345C08193A031D232B5D08143A7E
:10063000031D232B5E08123A031D232B5F08133A78
:10064000031D232B04345C08123A031D342B5D0870
:10065000173A031D342B5E08113A031D342B5F0833
:10066000113A031D342B05345C08133A031D452B46
:100670005D08123A031D452B5E08133A031D452BF6
:100680005F08153A031D452B0634A02A3230E000DE
:10069000E100E200E300E400E801E901EA01EB0126
:1006A00005110C30CB200130CB20552005155030E2
:1006B000CB207230CB206530CB207330CB20733011
:1006C000CB202030CB204530CB206E30CB20743077
:1006D000CB206530CB207230CB202030CB206B304C
:1006E000CB206530CB207930CB200511C030CB201A
:1006F00005152830CB204C30CB206F30CB206E300E
:10070000CB206730CB202930CB201E21803A031D1F
:10071000852BA02200380319462B05286008CC0041
:100720009221D801D90148082D2048082D205808C9
:10073000C0005908C100D8010830D9004A0831204A
:100740005808C2005908C300D8010130D900480830
:100750002D2048082D2048082D204A0831204A081D
:1007600031205808C4005908C500D8010730D90005
:1007700049082D2049082D2049082D204B083120FB
:100780004B0831204B0831205808C6005908C700D3
:10079000E0036008CC004F21912B6108CC0092212E
:1007A000C0014B08C100C2014908C300C4010310C5
:1007B0004A0DC500C6010310480DC700E1036108DA
:1007C000CC004F21D02B6208CC009221D801D90156
:1007D00048082D2049082D204B082D205808C0001E
:1007E0005908C100D801D90148082D2049082D20F9
:1007F0004A082D205808C2005908C300D801D90161
:1008000048082D204A082D204B082D205808C400E8
:100810005908C500D801D90149082D204A082D20C2
:100820004B082D205808C6005908C700D801D90127
:100830004808BE00BF0035204908BE00BF00352073
:100840004A08BE00BF0035204B08BE00BF0035205F
:100850005808FC390319382CC10A0319C00AC30A05
:100860000319C20AC50A0319C40AC70A0319C60A2A
:10087000E2036208CC004F21E62B6308CC009221F2
:10088000C001C201C401C60148082120C1004908B5
:100890002120C3004A082120C5004B082120C700A1
:1008A000E3036308CC004F21402C6408CC00922164
:1008B000C00168084907C100C20169084A07C300AE
:1008C000C4016A084B07C500C6016B084807C7008A
:1008D0004808E8004908E9004A08EA004B08EB002C
:1008E000E4036408CC004F21582CC03085008601F9
:1008F000831620308500B0308600073081008312D7
:1009000007309F00552055203330CF2055203330FD
:10091000CF2055203330CF2055202230CF20283013
:10092000CB200C30CB200630CB200130CB20552003
:0A093000A022013A031D982C462B6B
:02400E00113F60
:00000001FF
